:020000040800F2
:10000000C0360020E10100087D39000811310008E8
:100010007939000861100008254800080000000038
:10002000000000000000000000000000490100087E
:1000300001130008000000008D010008D9410008EC
:10004000FB010008FB010008FB010008FB010008A0
:10005000FB010008FB010008FB010008FB01000890
:10006000FB010008FB010008FB010008FB01000880
:10007000FB010008FB010008FB010008FB01000870
:10008000FB010008FB010008FB010008FB01000860
:10009000FB010008FB010008FB010008FB01000850
:1000A000FB010008FB010008FB010008FB01000840
:1000B000FB010008FB010008FB010008FB01000830
:1000C000FB010008FB010008FB010008FB01000820
:1000D000FB01000871470008FB010008A547000864
:1000E000D9150008FB010008FB010008FB0100080E
:1000F00075420008FB010008FB010008FB01000835
:10010000FB010008FB010008FB010008FB010008DF
:10011000FB010008FB010008FB010008FB010008CF
:10012000FB010008FB010008FB010008FB010008BF
:10013000DFF810D000F0ACFB004800474D54000839
:10014000AFF30080C0360020224B19680868B0E881
:10015000F00F80F30988BFF36F8F4FF0000080F33A
:1001600011884EF00D0E7047000000000648006830
:10017000006880F3088862B661B6BFF34F8FBFF3A3
:100180006F8F00DF00BF00BF08ED00E0EFF30980D4
:10019000BFF36F8F0F4B1A6820E9F00F106008B59E
:1001A0004FF0500080F31188BFF34F8FBFF36F8F74
:1001B00006F016FD4FF0000080F31188BDE80840FE
:1001C00019680868B0E8F00F80F30988BFF36F8FF3
:1001D000704700BF20000020EFF30580704700004B
:1001E0000648804706480047FEE7FEE7FEE7FEE7D1
:1001F000FEE7FEE7FEE7FEE7FEE7FEE773420008E4
:1002000031010008202A04DB203A21FA02F0002103
:10021000704721FA02F3D040C2F120029140084316
:100220001946704740EA01039B0703D009E008C95B
:10023000121F08C0042AFAD203E011F8013B00F8AB
:10024000013B521EF9D27047D2B201E000F8012BF7
:10025000491EFBD270470022F6E710B513460A4646
:1002600004461946FFF7F0FF204610BD421E12F863
:10027000013F002BFBD111F8013B02F8013B002BA1
:10028000F9D1704730B505462A460B4612F8010BE6
:1002900013F8014B08B1A042F8D01CB1002802D0DD
:1002A0006D1CF1E7284630BD421C10F8011B0029E7
:1002B000FBD1801A704710B5002200E0521C835C0D
:1002C0008C5CA34201D1002BF8D1D8B2E1B2401A24
:1002D00010BD10B5044600E0401C0378002BFBD194
:1002E00000E0401C521E04D311F8013B0370002BA8
:1002F000F7D100210170204610BD034611F8012BF3
:1003000000F8012B002AF9D11846704770B506464F
:1003100004F0E4FA046805460A220021304600F0A1
:100320009BF92C6070BD2DE9FE4F804681EA0300E9
:10033000C00F0C46009021F0004123F00045B8EBBF
:100340000200A94105D24046214690461C460B4674
:10035000024623F00040104347D0270DC7F30A00A0
:10036000C3F30A510290401A019040286BDAC3F39C
:10037000130040F4801B0098924620B10023D2EB7A
:10038000030A63EB0B0B01985946C0F1400250463B
:1003900000F041F906460D4650465946019A00F0D4
:1003A00049F910EB08006141002487EA115284EA00
:1003B000E7731A4340D0009A62B3019A012A4FEAC8
:1003C000075215DC001B61EB02014FF0004202EA0C
:1003D0000752CDE90042001C41F5801132462B4600
:1003E00000F081F903B0BDE8F08F40462146F9E7FF
:1003F000001B61EB0201001C41F5801300185B41FA
:100400002018A2F5001747EB030140EAD570B61992
:100410006D4111E06D084FEA360645EAC0754FEAB6
:100420000752001B61EB0201001C41F580114908D5
:100430004FEA30000019514132462B4603B0BDE867
:10044000F04F00F041B90098012240000023D0EBAA
:10045000020263EBE073009821464FEAE074B8EBC8
:10046000000061EB0401E9E783F000435BE781F002
:10047000004158E72DE9FE4F81EA030404F00044EF
:1004800021F0004100944FF0000B23F0004350EAAC
:1004900001045ED052EA03045BD0C3F30A54C1F3F3
:1004A0000A552C44A4F2F3340194A0FB0254C1F386
:1004B000130141F48011C3F3130343F4801301FBD0
:1004C000024400FB034E840A970A44EA815447EA37
:1004D0008357A4FB076802958D0A05FB07854FEA41
:1004E000932C04FB0C542705029D4FEA065847EA5B
:1004F0001637B5EB08056EEB070C870E920E47EA30
:10050000811742EA8312A7FB0201B6EB0B0164EBF1
:1005100000042B0D43EA0C335E1844EB1C50DA4602
:100520005146E7FB0201C5F313044FEA0B3343EADC
:1005300014534FEA0432019C43EA0603A4F10C046D
:100540000294009CCDE900B400F0CDF803B0BDE802
:10055000F08F00200146F9E730B5041E71F1000468
:1005600004DB4FF00044404264EB0101141E73F1C0
:10057000000405DB1C464FF00043524263EB0403CA
:10058000994208BF904230BD30B50B46014600206D
:100590002022012409E021FA02F59D4205D303FA45
:1005A00002F5491B04FA02F52844151EA2F10102C6
:1005B000F1DC30BD2DE9F05F0546002092469B46F8
:1005C00088460646814640241BE028464146474669
:1005D0002246FFF717FE53465A46C01A914110D3E0
:1005E00011461846224600F016F82D1A67EB01084E
:1005F0004F4622460120002100F00DF817EB0009BC
:100600004E41201EA4F10104DFDC484631462A4653
:100610004346BDE8F09F202A04DB203A00FA02F1AD
:10062000002070479140C2F1200320FA03F31943E0
:1006300090407047202A06DBCB17203A41FA02F09F
:1006400043EAE07306E041FA02F3D040C2F120022F
:1006500091400843194670472DE9F04791460F46EF
:1006600080460446002614F8015B2DB100F022F903
:100670000068405DC007F6D12B2D02D02D2D18D07B
:10068000641E4A463946204600F018F927B13968F9
:10069000A14201D1C7F8008071054FF002040BD5CB
:1006A0004042002803DD04F019F90460A007BDE80A
:1006B000F08746F48066E4E70028F8DA04F00EF9E3
:1006C00004606FF00040F2E710B5141E73F10004EF
:1006D00008DA401C41F1000192185B411A4301D134
:1006E00020F0010010BD2DE9F04D92469B4611B15E
:1006F000B1FA81F202E0B0FA80F220329046FFF7C0
:100700008AFF04460F4640EA0A0041EA0B015346BD
:100710005A46084313D0114653EA010019D0C8F1D4
:1007200040025046FFF76EFD05460E4650465946BC
:100730004246FFF770FF084305D0012004E0204641
:100740003946BDE8F08D0020054346EAE0762C43AB
:1007500037430A986305E40AA0EB08000022FD0A6B
:1007600044EA47540A3002D500200146E9E7010572
:1007700010196941DDE9084500196941BDE8F04DEE
:10078000A2E72DE9F04D81EA030404F0004B21F0CB
:10079000004514464FF0000A23F0004150EA0502DC
:1007A00020D054EA01021DD0C5F30A570246C5F312
:1007B0001303C1F31300C1F30A5640F4801543F448
:1007C0008013A7EB0608101BD64608F2FD3873EB22
:1007D000050002D308F1010801E092185B41B8F16D
:1007E000000F03DA00200146BDE8F08D00204FF431
:1007F0008011064684460EE0171B73EB050705D3F0
:10080000121B63EB050306434CEA010C49084FEA4F
:10081000300092185B4150EA0107EDD152EA030023
:1008200012D082EA040083EA0501084305D0101BB8
:10083000AB4106D20122002306E000224FF0004324
:1008400002E06FF0010253101AEB06004CEB085166
:1008500010EB0A0041EB0B01BDE8F04DFFF734BF90
:10086000C1F30A52C1F3130140F2FF3341F4801186
:100870009A4202DA00200146704740F233439A421E
:10088000A2F2334202DC5242FFF7BCBCFFF7C3BE08
:10089000064C074D06E0E06840F0010394E80700CD
:1008A00098471034AC42F6D3FFF746FC7C7B000837
:1008B0009C7B000800487047147B00082DE9F05F1E
:1008C00082460078002715468B460AF10104B94696
:1008D000302801D09DB113E014F8010B01277828CE
:1008E00003D0582801D045B10AE00DB1102D07D131
:1008F0000027102514F8010B02E0082500E00A2566
:100900000026B0460EE005FB080005FB06F10127B6
:1009100001EB10461FFA80F8B6F5803F00D3B946C8
:1009200014F8010B294600F018F80028EBDABBF1A7
:10093000000F05D00FB1641E00E05446CBF8004014
:10094000B9F1000F06D003F0C9FF02210160C81EF3
:10095000BDE8F09F48EA0640FAE73A2800D230386E
:1009600020F02002412A01D3A2F13700884201D3AE
:100970004FF0FF30704770B58C1810F8015B15F020
:10098000070301D110F8013B2A1106D110F8012B01
:1009900003E010F8016B01F8016B5B1EF9D12B0726
:1009A00005D40023521E0DD401F8013BFAE710F8DC
:1009B000013BCB1A921C03E013F8015B01F8015BC9
:1009C000521EF9D5A142D8D3002070BD2DE9F043C5
:1009D00099B007460E462549096808698047384698
:1009E000FFF762FC81462148006849468268384624
:1009F00090471E480068022182681DA0904700F0C1
:100A000033FE8046002429E00DEB0400174A1268EB
:100A1000D1688847D8B9601E1DF800000D2815D18F
:100A20001DF804000A2811D1611C684604F0E0FC9E
:100A300018B9002019B0BDE8F083611C684604F0C5
:100A4000B3FC10B94FF0FF30F4E70024641C00F051
:100A50000BFE0546454501DD761EA846002ED3D186
:100A600004A003F0E1FEB01EE4E700001401002042
:100A70000D0A000074696D656F75740D0A00000041
:100A80002DE9F04399B007460E4600242149096834
:100A9000086980473846FFF707FC81461D48006813
:100AA00049468268384690471A48006802218268A1
:100AB00019A0904700F0D8FD804624E00DEB04001B
:100AC000144A1268D1688847B0B9601E1DF800004A
:100AD0000D2810D11DF804000A280CD1611C6846AD
:100AE00004F076FC30B90DA003F09EFE002019B092
:100AF000BDE8F0830024641C00F0B6FD05464545C2
:100B000001DD761EA846002ED8D10AA003F08CFE87
:100B1000B01EECE7140100200D0A000053656E645E
:100B2000204461746120436F6D6D616E64204F4B92
:100B30000D0A000074696D656F75740D0A00000080
:100B40002DE9F0479AB080460D46174600202860F0
:100B5000814600F089FD8246002446E001AA101972
:100B6000244A1268D1688847002837D1B9F1000FAC
:100B700006D0B9F1010F12D0B9F1020F2DD11FE04B
:100B8000002101AA601C11541BA101A8FFF77AFBE8
:100B900018B14FF00109002400E0641C1DE001A819
:100BA000005D3A280AD1002001A9085501A8FFF7E5
:100BB000ADFB28604FF00209002400E0641C0CE04B
:100BC00001A8005D08F80400641C2868A04203D155
:100BD00000201AB0BDE8F08700BF00BF00F044FD60
:100BE0000646564501DD7F1EB246002FB6D1B81E1F
:100BF000EFE70000140100202B4950442C000000B6
:100C00002DE9F047B2B081460F461546642119A878
:100C1000FFF721FB3A462CA119A803F02FFE294625
:100C200019A8FFF72DFF8046B8F1000F42D12A49DD
:100C3000096808698047284800683946826848463C
:100C4000904700F011FD824600242FE00DEB0400D8
:100C5000214A1268D168884708BB601E1DF8000051
:100C60000D281BD11DF804000A2817D1611C684605
:100C700004F0BEFB38B90021601C0DF80010002004
:100C800032B0BDE8F087611C684604F08DFB28B9DE
:100C90000021601C0DF80010481EF1E7641C00F0F4
:100CA000E3FC0646564501DD6D1EB246002DCDD152
:100CB000A81EE5E708F1010010B94FF0FF30DFE7AB
:100CC0006FF00100DCE7000041542B4349505345CD
:100CD0004E443D2564000000140100202DE9F05F22
:100CE000814688461746244909680869804748466E
:100CF000FFF7DAFA8346204800685946826848467A
:100D000090471D480068022182681CA0904700F0AF
:100D1000ABFC82464546002429E02819164A126891
:100D2000D1688847E0B9601E285C0D2817D1285D7E
:100D30000A2814D1611C284604F05AFB28B9002166
:100D4000601C29540020BDE8F09F611C284604F077
:100D50002BFB20B90021601C2954481EF3E7641CBA
:100D600000F082FC0646564501DD7F1EB246002F8C
:100D7000D3D1B81EE7E70000140100200D0A0000DF
:100D800010B500F04FFC03490860096848688047C7
:100D900010BD00001401002010B5024802F0F0FD63
:100DA00010BD0000CC00002010B5FFF7F5FF10BD0E
:100DB0002DE9F047074689469046DDF820C000211E
:100DC0000022002400260025002004460246014699
:100DD00045E0002601E0491C761C614502D2585CC2
:100DE0002028F8D0614500D13BE0ACEB010002289F
:100DF00007D3585C0D2804D1481C185C0A2800D180
:100E00002CE0585C0A2800D128E01EB16FF02B00BE
:100E1000BDE8F087585C3D2806D1601C04460228D6
:100E200002D96FF02B00F3E7585C7F2806DC585C92
:100E3000DFF8E4A01AF800007F2802D16FF02B0041
:100E4000E6E7585CDFF8D0A01AF80000402803DA83
:100E500014B16FF02B00DBE7521C00BF491C614549
:100E6000B7D300BF1AB90020C8F80000D0E7D008F7
:100E700000EB40004FEA400A02F0070000EB4000A0
:100E80004000C01D0AEBD002121B0FB1914504D2E5
:100E9000C8F800206FF02900BAE7032400200646B6
:100EA00002463D4631E018780D2805D018780A280A
:100EB00002D01878202800D125E01878DFF858A053
:100EC0001AF80000402801D1012000E00020241A77
:100ED0001878DFF844A01AF8000066F39F10064661
:100EE000501C024604280DD1002214B1300C05F824
:100EF000010B012C02D9300A05F8010B022C01D993
:100F000005F8016B00BF491E5B1C0029CBD1E81B13
:100F1000C8F8000000207BE7CA7900082DE9F04FEF
:100F200007468946099C00250026AC46A846AA46E5
:100F300000211CB900201060BDE8F08F0320B4FB35
:100F4000F0F04FF0030BB4FBFBFE0BFB1E4BBBF1B1
:100F5000000F02D04FF0010B01E04FF0000B00EB4F
:100F60000B06B6F1804F05D34FF0FF3010606FF0E5
:100F70002900E1E7B600701C814500D327B9701C39
:100F800010606FF02900D7E70320B4FBF0F000EB0E
:100F900040060025394629E013F801CB13F8018BF0
:100FA00013F801AB2D484FEA9C0B10F80B0001F829
:100FB000010B4FEA0C1000EB281000F03F00DFF8A7
:100FC0009CB01BF8000001F8010B4FEA880000EB11
:100FD000AA1000F03F001BF8000001F8010B0AF016
:100FE0003F001BF8000001F8010BED1CB542D3D304
:100FF000A5422DD213F801CB681CA04202D213F8EF
:10100000010B00E0002080461448CCF3850B10F85B
:101010000B0001F8010B4FEA0C1000EB281000F058
:101020003F00DFF838B01BF8000001F8010B681C26
:10103000A04207D23F2000EA88001BF8000001F818
:10104000010B02E03D2001F8010B3D2001F8010BEE
:10105000C81B10600020087000BF6DE78A79000887
:1010600000BFFEE710B500F00DF8002010BD10B570
:101070000446611D201D00F033F810BD10B502F0CC
:1010800049F810BD00B585B0002001900290039092
:10109000049000F0B9F840210F4800F007FC00BFB1
:1010A0000E48806940F080000C49886108468069DC
:1010B00000F08000009000BF00BF40200190112090
:1010C0000290012003900320049001A9024800F03F
:1010D000BFFC05B000BD0000001C01400010024034
:1010E0007CB504460D46002000900190002600F0DB
:1010F0007DF801224021264800F052FE282000F011
:10110000E3F84021224800F043FEE8BB00BF402145
:101110001F4800F03DFE0028F9D000BF40211C48C8
:1011200000F036FE0028F9D100F034F8C0B28DF896
:10113000000000F02FF8C0B28DF8010000F02AF88E
:10114000C0B28DF8020000F025F8C0B28DF803009F
:1011500000F020F8C0B28DF804009DF800009DF862
:10116000011008449DF8021008449DF80310461829
:101170009DF80400B04208D19DF8000028709DF849
:101180000200207000207CBDFFE74FF0FF30FAE73F
:10119000001C014070B50025002400BF1FE04FF483
:1011A0007A71012000F078F810B14FF0FF3070BD77
:1011B000282000F089F86006040E40210A4800F05B
:1011C000E7FD08B144F001044FF47A71002000F00B
:1011D00063F810B14FF0FF30E9E7681CC5B2082D85
:1011E000DDDB2046E3E70000001C014010B50022D3
:1011F0004021044800F0D4FD44F6206000F064F87B
:1012000010BD0000001C014000B587B00020039015
:101210000490059006900190029000BF1B48C069A1
:1012200040F002001949C8610846C06900F0020098
:10123000009000BF00BF16481649086000211548FD
:10124000C160472013494860002112480161816054
:101250004161816101F068FA08B100F0DBF94FF4F7
:101260008050039003A90B4801F035FB08B100F052
:10127000D1F900200190029001A9064801F006FA78
:1012800008B100F0C7F907B000BD0000001002402F
:10129000000400401C06002070B504460D460AE01C
:1012A0004021084800F074FDA04201D1002070BD2B
:1012B000012000F009F8281EA5F101018DB2EFD13F
:1012C000401EF4E7001C014070B50446002500BF35
:1012D0000A480068C4620948C46000BF00684562EB
:1012E000064801F055FA03E004480068406A85B2F8
:1012F000A542F9D1014801F0D5FA70BD1C060020C5
:101300007047000010B50A2101A0FFF75FFB10BD78
:1013100041542B434950434C4F53450030B599B08D
:1013200004460D462B46224605A1684603F0A6FA60
:1013300042F210716846FFF749FB19B030BD00005A
:1013400041542B43574A41503D222573222C2225DC
:101350007322000030B599B005460C4612A128460C
:10136000FEF7A9FF20B111A12846FEF7A4FF28B976
:1013700022460FA1684603F081FA0EE017A1284625
:10138000FEF799FF20B116A12846FEF794FF20B979
:10139000224614A1684603F071FA42F210716846C1
:1013A000FFF714FB19B030BD756470005544500050
:1013B00041542B43495053544152543D22554450BB
:1013C000222C223139322E3136382E382E35222C2D
:1013D000383038302C25642C3200000074637000E3
:1013E0005443500041542B43495053544152543DAF
:1013F00022544350222C226D717474732E686563DD
:101400006C6F7564732E636F6D222C256400000071
:10141000F0B5B3B006460F4642F2107201A911A012
:10142000FFF75CFCD0B912A101A8FEF72BFF044620
:101430009CB10E34002503E0615D301D41556D1CEB
:10144000605D2228F8D10021301D4155311D3846FC
:10145000FEF753FF002033B0F0BD00BF4FF0FF3068
:10146000F9E7000041542B43494653520000000065
:101470002B43494653523A53544149502C220000C1
:101480002DE9F0419AB080460C4600264EE04EB958
:1014900042F2107126A0FFF799FA0746002F44D1B7
:1014A000012642E0012E40D1642101A8FEF7D3FEBF
:1014B000002542F2107201A926A0FFF70FFC074693
:1014C000002F31D127A101A8FEF7DCFE0546002D33
:1014D0002AD011352888A4F80500A878E0710021E9
:1014E00021722D1D2888A4F80900E172ED1C2888BE
:1014F000A081A173ED1C2888A4F80F006174ED1C75
:10150000288860822175ED1C2868206000202071E9
:1015100018A12046FEF7B6FE08B1002606E0012617
:1015200000201AB0BDE8F08100BF00BFAFE70000A7
:1015300041542B434950534E54504346473D312C60
:10154000382C223132302E32352E3131352E323098
:101550002200000041542B434950534E54505449EB
:101560004D453F002B434950534E545054494D452F
:101570003A000000313937300000000010B5FFF7A5
:10158000FFFB0A2104A0FFF721FA0A2105A0FFF7BB
:101590001DFA002010BD000041542B43574D4F440D
:1015A000453D330041542B4349504D55583D300083
:1015B00070B504460D461646324629462046FFF7CA
:1015C000BFFA70BD70B504460D4616463246294630
:1015D0002046FFF715FB70BD10B54FF4804000F0BA
:1015E00029FA4FF4004000F025FA10BD10B5012291
:1015F0000E21272000F084FC272000F071FC044815
:101600000068C06840F0200001490968C86010BD4A
:101610008C05002072B600BFFEE710B501F084FD16
:10162000002010BD00487047180100200146012924
:1016300001DC024870470020FCE70000BC000020ED
:1016400070B505460748046807E029462068FEF79C
:1016500032FE08B9204670BD246C002CF5D1002064
:10166000F9E700001001002010B500F09FFB10BD4D
:1016700000487047B428002010B50446204601F009
:101680004DFD10BD0146002291F82100022808D02E
:101690000420886300BF002081F8200000BF0120E3
:1016A00070470868006820F00E000B681860086832
:1016B000006820F001000B68186091F840300120AC
:1016C0009840CB6B5860012081F8210000BF0020BA
:1016D00081F8200000BF1046E2E7000070B5044624
:1016E000002594F82100022803D00420A0630125DE
:1016F000C1E02068006820F00E00216808602068C2
:10170000006820F00100216808605C492068884278
:1017100052D95A4978392068884201D1012047E0DE
:10172000564964392068884201D1102040E053496D
:1017300050392068884201D1801539E04F493C3941
:101740002068884201D1801432E04C492839206851
:10175000884202D14FF480302AE048491439206889
:10176000884202D14FF4801022E044492068884228
:1017700001D140041CE042492068884201D1012087
:1017800016E03F4914312068884201D110200FE053
:101790003B4928312068884201D1801508E038494A
:1017A0003C312068884201D1801401E04FF4803040
:1017B0003349091F086051E0304978392068884270
:1017C00001D1012047E02D4964392068884201D1C8
:1017D000102040E0294950392068884201D1801505
:1017E00039E026493C392068884201D1801432E032
:1017F000224928392068884202D14FF480302AE0FB
:101800001E4914392068884202D14FF4801022E02A
:101810001A492068884201D140041CE01849206818
:10182000884201D1012016E0154914312068884210
:1018300001D110200FE0124928312068884201D1DF
:10184000801508E00E493C312068884201D180149F
:1018500001E04FF48030094980394860012084F864
:10186000210000BF002084F8200000BF606B10B191
:101870002046616B8847284670BD0000800002400A
:101880000804024070B5044600F090FA064625466A
:10189000681C10B104480078054400BF00F086FAC7
:1018A000801BA842FAD370BD0C0000202DE9F04146
:1018B00002460B4600208CE00127874007EA03011F
:1018C00000296FD0464F4FEA900C57F82C408707FD
:1018D0004FEA177C0F2707FA0CF73C40414FBA42FA
:1018E00001D1002719E0404FBA4201D1012714E08D
:1018F0003E4FBA4201D102270FE03D4FBA4201D11B
:1019000003270AE03B4FBA4201D1042705E03A4FD2
:10191000BA4201D1052700E006274FEA807C4FEA52
:101920001C7C07FA0CF7A74232D1344F3F688F4333
:10193000DFF8C8C0CCF800700CF104073F688F4393
:101940000CF1040CCCF800702C4F0C373F688F431F
:10195000DFF8A8C00CF10C0CCCF80070ACF1040757
:101960003F688F43ACF1040CCCF8007087074FEA56
:10197000177C0F2707FA0CF4194F4FEA900C57F811
:101980002C70A743DFF858C04FEA90084CF8287035
:10199000FF2901D8174600E0171D3D46FF2902D850
:1019A000870003E014E0A0F10807BF003E462F685F
:1019B0004FF00F0C0CFA06FC27EA0C074FF0040C52
:1019C0000CFA06FC47EA0C072F60D7688F43D760F4
:1019D000401C23FA00F7002F7FF46EAFBDE8F081C2
:1019E0000800014000080140000C014000100140C7
:1019F0000014014000180140001C01400004014097
:101A000070B50446B4F5804F08D100F0CFF900F16D
:101A100014052946002002F0C5FB0AE0B4F5004F8A
:101A200007D100F0C3F900F114052946012002F0A6
:101A3000B9FB70BD10B5044604480068204020B1D1
:101A4000024804602046FFF7DBFF10BD140401408C
:101A50002DE9F847024600239C467BE14FF0010840
:101A600008FA03F4D1F8008008EA0400A0427DD10E
:101A7000DFF8F4A2D1F80480A8EB0A09D0453AD0E7
:101A800014DCB8F1030F50D009DCB8F1000F31D0ED
:101A9000B8F1010F1CD0B8F1020F49D120E0B8F124
:101AA000110F18D0B8F1120F42D11EE0B9F5881FFE
:101AB00025D006DCB9F5803F20D0B9F5801F37D19D
:101AC0001AE0B9F5001F18D0B9F5041F30D117E09E
:101AD000D1F80CC02DE0D1F80C8008F1040C28E0FE
:101AE000D1F80C8008F1080C23E0D1F80C8008F143
:101AF0000C0C1EE000BF00BF00BF00BF00BF00BF56
:101B0000D1F80880B8F1000F02D14FF0040C0BE0BF
:101B1000D1F80880B8F1010F03D14FF0080C14611F
:101B200002E04FF0080C546103E04FF0000C00E0BD
:101B300000BF00BFFF2801D8904601E002F1040871
:101B40004646FF2802D84FEA830803E0A3F10808BD
:101B50004FEA88084746D6F800804FF00F0909FA87
:101B600007F928EA09080CFA07F900E07AE048EAE0
:101B70000908C6F80080D1F8048008F08058B8F150
:101B8000805F6FD100BFDFF8E481D8F8188048F09B
:101B90000108DFF8D891C9F81880C846D8F818802D
:101BA00008F00108CDF8008000BF00BF4FEAB93847
:101BB0004FEA930958F829504FEA83784FEA187989
:101BC0004FF00F0808FA09F825EA0805DFF8A081A8
:101BD000424502D14FF0000824E0DFF898814245E9
:101BE00002D14FF001081DE0DFF88C81424502D19F
:101BF0004FF0020816E0DFF88481424502D14FF031
:101C000003080FE0DFF87881424502D14FF0040865
:101C100008E0DFF87081424502D14FF0050801E08D
:101C20004FF006084FEA83794FEA197908FA09F864
:101C300048EA0505DFF850814FEA930948F8295032
:101C4000D1F8048008F48018B8F5801F0BD1DFF8B4
:101C50003C81D8F8008048EA0008DFF83091C9F8E4
:101C600000800AE075E0DFF82481D8F8008028EAD7
:101C70000008DFF81891C9F80080D1F8048008F452
:101C80000018B8F5001F0ED1DFF8008108F1040834
:101C9000D8F8008048EA0008DFF8F09009F104095C
:101CA000C9F800800DE0DFF8E48008F10408D8F8F6
:101CB000008028EA0008DFF8D49009F10409C9F887
:101CC0000080D1F8048008F40038B8F5003F0ED148
:101CD000DFF8B880A8F10408D8F8008048EA0008C6
:101CE000DFF8A890A9F10409C9F800800DE0DFF839
:101CF0009C80A8F10408D8F8008028EA0008DFF8E2
:101D00008C90A9F10409C9F80080D1F8048008F486
:101D10008038B8F5803F0ED1DFF87080A8F1080850
:101D2000D8F8008048EA0008DFF86090A9F10809B7
:101D3000C9F800800DE0DFF85480A8F10808D8F851
:101D4000008028EA0008DFF84490A9F10809C9F8E2
:101D500000805B1CD1F8008028FA03F8B8F1000F6E
:101D60007FF47CAEBDE8F88700001110001002403F
:101D700000080140000C0140001001400014014027
:101D800000180140001C0140080001400804014007
:101D9000024693680B400BB1012000E00020704721
:101DA0000AB1016101E00B0403617047014800685A
:101DB00070470000040000200348006803490978C8
:101DC0000844014908607047040000200C0000200E
:101DD00010B50848006840F010000649086003206C
:101DE00000F0CCF80F2000F007F800F049F80020D0
:101DF00010BD00000020024070B588B004460025E8
:101E00000026002221462C2000F07AF82C2000F039
:101E100067F800BF1648806940F400501449886193
:101E20000846806900F40050019000BF00BF02A97D
:101E300003A800F077F900F0ADF905460D48B5FBB1
:101E4000F0F0461E0C480D49086040F2E7310B489F
:101E5000C160466000210161816000F065FC20B92D
:101E6000064800F0D7FC08B070BD0120FBE7000079
:101E70000010024040420F0000340140D405002011
:101E800008B500BF1448806940F00100124988611C
:101E90000846806900F00100009000BF00BF00BF4D
:101EA0000846C06940F08050C8610846C06900F02B
:101EB0008050009000BF00BF00220F21901E00F054
:101EC0001FF800BF0549486820F0E06040F000704E
:101ED000486000BF08BD0000001002400000014043
:101EE00001460846002809DB00F01F0301229A4042
:101EF00043099B0003F1E023C3F8002100BF7047B2
:101F00002DE9F05F80460D461646002702F0CAFC18
:101F1000074639462A46334601F00700C0F1070A52
:101F2000BAF1040F02D94FF0040A01E0C0F1070A28
:101F3000D14600F1040ABAF1070F02D24FF0000AAD
:101F400001E0A0F1030AD4464FF0010A0AFA09FAA7
:101F5000AAF1010A0AEA020A0AFA0CFA4FF0010B86
:101F60000BFA0CFBABF1010B0BEA030B4AEA0B0477
:101F70002146404602F09EFCBDE8F09F00BF00F005
:101F80000702064B19684FF6FF031940044B0B4339
:101F900043EA0221014B196000BF70470CED00E0DD
:101FA0000000FA0570B504460D460CB9012070BD5D
:101FB0005848006800F00700A8420ED25548006853
:101FC00020F007002843534908600846006800F0E5
:101FD0000700A84201D00120E9E7207800F00200C4
:101FE00002281DD1207800F00400042805D14A48B9
:101FF000406840F4E06048494860207800F00800FC
:10200000082805D14448406840F46050424948607F
:102010004148406820F0F000A16808433E4948600C
:10202000207800F0010078B36068012806D13A48B2
:10203000006800F4003090B90120B8E76068022819
:1020400006D13548006800F0007040B90120AEE7C5
:102050003148006800F0020008B90120A7E72E48C7
:10206000406820F00300616808432B494860FFF78F
:102070009DFE064609E0FFF799FE801B41F288317C
:10208000884202D9032092E707E02348406800F025
:102090000C006168B0EB810FEDD11E48006800F0C4
:1020A0000700A8420ED91B48006820F0070028430B
:1020B000184908600846006800F00700A84201D0EF
:1020C000012074E7207800F00400042807D11248AA
:1020D000406820F4E060E16808430F4948602078D8
:1020E00000F00800082808D10B48406820F4605030
:1020F000216940EAC1000849486000F05BF80649E0
:102100004968C1F30311054A515CC840044908609D
:1021100000204CE7002002400010024072790008C5
:10212000100000200F2202600D4A526802F00302E4
:1021300042600B4A526802F0F0028260084A52681C
:1021400002F4E062C260064A526802F46052D208A9
:102150000261044A126802F007020A607047000038
:102160000010024000200240014800687047000053
:102170001000002000B5FFF7F7FF04494968C1F3DC
:102180000221034A515CC84000BD0000001002401B
:102190008279000800B5FFF7E7FF04494968C1F3F9
:1021A000C221034A515CC84000BD0000001002403B
:1021B0008279000870B5002100220024002300204D
:1021C000134D696801F00C05F5B1042D02D0082DFE
:1021D00019D101E00F4819E00F4DC1F38346AB5D03
:1021E00001F4803555B10A4D6D68C5F340450B4E7D
:1021F000725D084D5D43B5FBF2F402E0084D03FB50
:1022000005F4204602E000BF024800BF00BF70BDD9
:102210000010024000127A0060790008707900080E
:1022200000093D00F8B504460CB90120F8BD20783E
:1022300000F00100002878D0F848406800F00C0059
:1022400004280CD0F548406800F00C00082811D193
:10225000F248406800F48030B0F5803F0AD1EF4882
:10226000006800F4003000285FD0606800285CD16E
:102270000120DBE700BF6068B0F5803F06D1E7488A
:10228000006840F48030E549086028E0606858B98B
:10229000E248006820F48030E049086008460068A1
:1022A00020F4802008601AE06068B0F5A02F0BD100
:1022B000DA48006840F48020D84908600846006881
:1022C00040F4803008600AE0D448006820F4803090
:1022D000D24908600846006820F48020086000BFEA
:1022E000606888B1FFF762FD054606E0FFF75EFD16
:1022F000401B642801D9032098E7C848006800F40F
:1023000000300028F2D010E0FFF750FD054606E04F
:10231000FFF74CFD401B642801D9032086E7BF4826
:10232000006800F400300028F2D1207800F00200AC
:10233000022857D1B948406800F00C0050B1B748A6
:10234000406800F00C00082818D1B448406800F438
:10235000803098B9B148006800F0020020B12069CF
:10236000012801D0012061E7AC48006820F0F800A6
:10237000616940EAC100A949086033E02069E8B119
:102380000120A7490860FFF711FD054606E0FFF7A9
:102390000DFD401B022801D9032047E79F48006834
:1023A00000F002000028F2D09C48006820F0F800FD
:1023B000616940EAC1009949086013E0002098492A
:1023C0000860FFF7F3FC054606E0FFF7EFFC401B53
:1023D000022801D9032029E79048006800F0020094
:1023E0000028F2D1207800F0080008282DD1A0693B
:1023F000B8B101208B490860FFF7D8FC054606E01C
:10240000FFF7D4FC401B022801D903200EE78348C4
:10241000406A00F002000028F2D0012001F0AEFE78
:1024200013E000207F490860FFF7C0FC054606E086
:10243000FFF7BCFC401B022801D90320F6E67748D1
:10244000406A00F002000028F2D1207800F0040079
:10245000042873D100277148C06900F0805070B91A
:1024600000BF6E48C06940F080506C49C8610846A2
:10247000C06900F08050009000BF00BF01276A488B
:10248000006800F48070B0B96748006840F480705C
:1024900065490860FFF78AFC054606E0FFF786FC01
:1024A000401B642801D90320C0E65F48006800F49F
:1024B00080700028F2D000BFE068012806D157489C
:1024C000006A40F001005549086227E0E06858B909
:1024D0005248006A20F00100504908620846006A2C
:1024E00020F00400086219E0E06805280BD14B4891
:1024F000006A40F00400494908620846006A40F05A
:10250000010008620AE04548006A20F001004349E2
:1025100008620846006A20F00400086200BFE06814
:10252000A0B1FFF743FC054609E0FFF73FFC401B65
:1025300041F28831884202D9032077E622E0374809
:10254000006A00F002000028EFD012E0FFF72EFC36
:10255000054608E0FFF72AFC401B41F2883188421B
:1025600001D9032062E62D48006A00F0020000282D
:10257000F0D1012F05D12948C06920F080502749AA
:10258000C86100BFE069C8B32448406800F00C008F
:10259000082860D0E069022848D100202049086658
:1025A000FFF704FC054606E0FFF700FC401B02288D
:1025B00001D903203AE61948006800F000700028AD
:1025C000F2D1206AB0F5803F07D11448406820F46A
:1025D0000030A168084311494860D4E90801084364
:1025E0000E49496821F4741108430C4948600120E0
:1025F0000B490866FFF7DAFB054607E03DE0FFF709
:10260000D5FB401B022801D903200FE603480068D0
:1026100000F000700028F2D02FE00000001002400F
:1026200000004242800442420070004000201449F1
:102630000866FFF7BBFB054606E0FFF7B7FB401B4C
:10264000022801D90320F1E50E48006800F000706F
:102650000028F2D111E0E069012800D1E6E509483F
:10266000466806F48031206A814204D106F4701174
:10267000606A814201D00120D8E50020D6E5000043
:1026800000004242001002407047704730B50246D9
:102690000B4600BF92F83C00012801D1022030BD5A
:1026A000012082F83C0000BF022082F83D00106843
:1026B00044681068816824F0700418680443106846
:1026C0004460144D1068A84213D0134D1068A842FE
:1026D0000FD01068B0F1804F0BD0104D1068A84299
:1026E00007D00F4D1068A84203D00E4D1068A842C5
:1026F00005D121F0800158680143106881600120F4
:1027000082F83D0000BF002082F83C0000BF00BFFF
:10271000C5E70000002C01400034014000040040E7
:1027200000080040000C004010B504460CB9012020
:1027300010BD94F83D0028B9002084F83C002046E4
:1027400000F025F8022084F83D00211D206801F0EA
:1027500099FD012084F8460000BF84F83E00012165
:102760003F200155402001554120015500BF00BFC9
:10277000012084F8420043200155442001554520A2
:10278000015500BF012084F83D000020D0E77047CC
:10279000014691F83D00012801D001207047022038
:1027A00081F83D00164B0868984213D0154B086815
:1027B00098420FD00868B0F1804F0BD0124B0868D8
:1027C000984207D0114B0868984203D0104B086814
:1027D00098420CD10868806800F00702062A0CD0E5
:1027E0000868006840F001000B68186005E00868A0
:1027F000006840F001000B6818600020CEE7000080
:10280000002C01400034014000040040000800405A
:10281000000C0040014691F83D00012801D0012044
:102820007047022081F83D000868C06840F0010050
:102830000B68D860164B0868984213D0154B08688F
:1028400098420FD00868B0F1804F0BD0124B086847
:10285000984207D0114B0868984203D0104B086883
:1028600098420CD10868806800F00702062A0CD054
:102870000868006840F001000B68186005E008680F
:10288000006840F001000B6818600020C8E70000F5
:10289000002C0140003401400004004000080040CA
:1028A000000C0040014600BF0868006A41F21112A6
:1028B000104050B90868006A9210104028B90868A2
:1028C000006820F001000A68106000BF012081F854
:1028D0003D00002070472DE9F04104460D460027D9
:1028E00000BF94F83C00012802D10220BDE8F0812D
:1028F000012084F83C0000BF022084F83D002068DD
:10290000866826F0770626F47F4620688660286869
:10291000502833D00CDC202850D004DC00284BD0C9
:10292000102851D149E0302849D040284CD139E015
:1029300060282DD0702807D0B0F5805F03D0B0F5A7
:10294000005F41D10DE041E0D5E902136A682068DB
:1029500001F0E6FC2068866846F07706206886600D
:1029600034E0D5E902136A68206801F0D9FC2068D8
:10297000806840F480402168886027E0EA686968E0
:10298000206801F0E1FC5021206801F0D4FC1DE03A
:10299000EA686968206801F0EAFC6021206801F0BB
:1029A000CAFC13E0EA686968206801F0CDFC4021A8
:1029B000206801F0C0FC09E000BF00BF00BF29682B
:1029C000206801F0B8FC01E0012700BF00BF012032
:1029D00084F83D0000BF002084F83C0000BF38466A
:1029E00084E7704710B5044620680069C0F34000D2
:1029F000D8B12068C068C0F34000B0B16FF00200E9
:102A000021680861012020772068806900F00300B8
:102A100018B12046FFF7E5FF05E0204600F0ADF8CD
:102A2000204600F0ABF80020207720680069C0F352
:102A30008000D8B12068C068C0F38000B0B16FF0EA
:102A4000040021680861022020772068806900F472
:102A5000407018B12046FFF7C4FF05E0204600F0A3
:102A60008CF8204600F08AF8002020772068006962
:102A7000C0F3C000D8B12068C068C0F3C000B0B1D6
:102A80006FF0080021680861042020772068C06981
:102A900000F0030018B12046FFF7A3FF05E0204631
:102AA00000F06BF8204600F069F8002020772068DD
:102AB0000069C0F30010D8B12068C068C0F30010EE
:102AC000B0B16FF0100021680861082020772068FD
:102AD000C06900F4407018B12046FFF782FF05E09E
:102AE000204600F04AF8204600F048F80020207701
:102AF0002068006900F0010058B12068C06800F04B
:102B0000010030B16FF0010021680861204600F03B
:102B100037F820680069C0F3C01058B12068C06859
:102B2000C0F3C01030B16FF080002168086120460A
:102B3000FFF7AAFD20680069C0F3801058B1206833
:102B4000C068C0F3801030B16FF0400021680861A8
:102B5000204600F027F820680069C0F3401058B103
:102B60002068C068C0F3401030B16FF020002168C9
:102B700008612046FFF789FD10BD704770470000CF
:102B800010B5044606492068884201D1FFF714F9C0
:102B900003492068884201D101F0A6FA10BD000067
:102BA0000034014070477047704700002DE9F84F2E
:102BB0000446206805682068C668206847694FF0A9
:102BC0000009CA4605F00F09B9F1000F0AD105F056
:102BD000200038B106F0200020B1204601F051FC61
:102BE000BDE8F88FB9F1000F7BD007F0010018B9EC
:102BF00006F49070002874D005F0010030B106F49E
:102C0000807018B1606C40F00100606405F0040051
:102C100030B107F0010018B1606C40F00200606450
:102C200005F0020030B107F0010018B1606C40F00F
:102C30000400606405F0080048B106F0200010B9F7
:102C400007F0010018B1606C40F008006064606C2F
:102C5000002845D005F0200028B106F0200010B172
:102C6000204601F00EFC20684069C0F3801A606CB9
:102C700000F0080010B9BAF1000F2CD0204601F086
:102C8000BAFB2068406900F0400000B300BF00BFFD
:102C90002168143151E8001F21F0400021681431EF
:102CA00041E80002002AF3D100BFE06B50B1774841
:102CB000E16B4863E06BFEF711FD88B1E06B416B9F
:102CC00088470DE02046FFF76FFF09E009E0204646
:102CD000FFF76AFF04E02046FFF766FF002060640C
:102CE0007EE7206B012877D105F01000002873D013
:102CF00006F010000028FAD000BF002000902068E5
:102D00000068009020684068009000BF00BF206805
:102D1000406900F0400000285FD0E06B0068406828
:102D20001FFA80F8B8F1000F55D0A08D404552DD54
:102D3000A4F82E80E06B8069202843D000BF00BF3C
:102D400021680C3151E8001F21F4807021680C319A
:102D500041E80002002AF3D100BF00BF00BF216894
:102D6000143151E8001F21F001002168143141E8BD
:102D70000002002AF3D100BF00BF00BF2168143158
:102D800051E8001F21F040002168143141E80002A1
:102D9000002AF3D100BF202084F8420000202063E5
:102DA00000BF00BF21680C3151E8001F21F0100066
:102DB00021680C3141E80002002AF3D100BFE06B2A
:102DC000FEF760FC02206063A08DE28D801A81B264
:102DD0002046FFF7E8FE03E742E0A08DE18D401AB0
:102DE0001FFA80F8E08DD0B3B8F1000F37D000BFE4
:102DF00000BF21680C3151E8001F21F49070216858
:102E00000C3141E80002002AF3D100BF00BF00BF2F
:102E10002168143151E8001F21F0010021681431AC
:102E200041E80002002AF3D100BF202084F84200CC
:102E30000020206300BF00BF21680C3151E8001F53
:102E400021F0100021680C3141E80002002AF3D182
:102E500000BF0220606341462046FFF7A4FEBFE6A4
:102E600005F0800030B106F0800018B1204601F076
:102E700005FCB5E605F0400030B106F0400018B1A1
:102E8000204601F0EEFAABE600BFA9E6E3430008F6
:102E900010B504460CB9012010BDA06900B100E0D6
:102EA00000BF94F8410028B9002084F84000204673
:102EB00000F02AF8242084F841002068C06820F43B
:102EC00000502168C860204601F05AFB2068006964
:102ED00020F49040216808612068406920F02A00B1
:102EE000216848612068C06840F400502168C860CB
:102EF00000206064202084F8410084F84200002013
:102F0000606300BFC8E7000010B586B0044600202B
:102F100002900390049005903E492068884230D189
:102F200000BF3D48806940F480403B4988610846C5
:102F3000806900F48040019000BF00BF00BF0846D8
:102F4000806940F0040088610846806900F0040050
:102F5000019000BF00BF481502900220039003209B
:102F6000059002A92D48FEF773FD4FF48060029092
:102F7000002003900120049002A92848FEF768FD74
:102F800045E027492068884241D100BF2248C069F6
:102F900040F480202049C8610846C06900F48020C0
:102FA000019000BF00BF00BF0846806940F02000CC
:102FB00088610846806900F02000019000BF00BFD2
:102FC00088150290022003900320059002A915485D
:102FD000FEF73EFD4FF40070029000200390049035
:102FE00002A91048FEF734FD00BF0F49486820F0E1
:102FF000300040F0E06040F03000486000BF002248
:1030000005212720FEF77CFF2720FEF769FF06B089
:1030100010BD0000003801400010024000080140CF
:10302000004800400014014000000140034A0168CC
:10303000914202D10121024A1170704700380140CB
:10304000150000202DE9F84F04460E461746994614
:103050004FF0000A94F8410020284AD106B117B970
:103060000120BDE8F88F00206064212084F8410031
:10307000FEF79CFE8246A784E784A068B0F5805FD7
:1030800004D1206910B90025B04602E035464FF062
:1030900000081BE05346002280212046CDF8009016
:1030A00001F01CFB08B10320DBE745B9B8F80000CC
:1030B000C0F308002168486008F1020803E028789E
:1030C000216848606D1CE08C401EE084E08C002884
:1030D000E0D15346002240212046CDF8009001F077
:1030E000FDFA08B10320BCE7202084F8410000204D
:1030F000B7E70220B5E70000034A0168914202D118
:103100000121024A1170704700380140140000206C
:1031100000BFFEE710B5FDF7A5FF10BD10B50446D2
:103120002046FDF7A4FF10BD00B585B000BF1D48C7
:10313000806940F040001B4988610846806900F0C2
:103140004000009000BF00BF00BF0846806940F00B
:10315000400088610846806900F04000009000BF90
:1031600000BF002001900290039004900E4802904E
:10317000012003908003019001A90C48FEF768FC30
:103180004FF40040019001A90848FEF761FC0222BB
:1031900000212820FEF7B4FE2820FEF7A1FE05B08E
:1031A00000BD000000100240000031100018014076
:1031B00010B50446207B012802D1206802F00EF8E9
:1031C000002020606060A060207310BD02460023D4
:1031D00001230DE002F07F000870D2092AB10878BF
:1031E00040F080000870491C01E0184670475B1CE5
:1031F000042BEFDD4FF0FF30F8E770B504460E46C4
:103200000025206898B901202073304602F056F955
:1032100020602068E0B100206060A66003E000202C
:10322000216848556D1CA068A842F8D810E002201B
:10323000207303E00020216848556D1CA068A84257
:10324000F8D800206060A068B04201D20020206061
:1032500070BD00002DE9FF4F83B082468B4691463A
:10326000159C0025002002900F2701904846FDF78D
:103270001BF80FFA80F8B9F1000F03D1012007B055
:10328000BDE8F08F08F10200384487B2109808B109
:1032900045F00205129878B145F004051298FDF743
:1032A00003F8C0B202901398FCF7FEFF01460298A3
:1032B000001D0844384487B2119820B1012804D079
:1032C000022808D104E000BF07E045F00C0504E047
:1032D00045F0140501E00220D1E700BF149808B1C1
:1032E00045F02405BAF1000F02D0BBF1000F01D167
:1032F0000320C4E745F0C0055046FCF7D5FF06465D
:103300005846FCF7D1FF3044001D384487B2394697
:103310002046FFF772FF206808B90420AFE739465E
:103320002068FCF798FF10216268501C60602068DC
:103330008154D4E90023D118781FFFF747FF00B26A
:1033400001900198002804DA2046FFF731FF05209C
:1033500095E7616801980844606000216268501C2C
:1033600060602068815404216268501C606020689D
:1033700081544D216268501C606020688154512145
:103380006268501C60602068815454216268501C3F
:103390006060206881546268501C606020688154BD
:1033A00004216268501C6060206881546168481C78
:1033B0006060206845540698010A6268501C60608D
:1033C000206881540698C1B26268501C6060206811
:1033D0008154C8F307216268501C606020688154E2
:1033E0006268501C6060206800F80280D4E9001216
:1033F000881842464946FCF76CFF606840446060AC
:1034000005F00400B8B30026139808B938A013904B
:103410001298FCF749FF86B2310A6268501C60605E
:10342000206881546268501C606020688654D4E92A
:103430000012881832461299FCF74BFF606830443E
:1034400060601398FCF730FF86B2310A6268501C46
:103450006060206881546268501C606020688654F7
:10346000D4E90012881832461399FCF732FF6068DD
:103470003044606000BF05F08000C8B15046FCF7E2
:1034800013FF86B2310A6268501C60602068815464
:103490006268501C606020688654D4E90012881865
:1034A00032465146FCF715FF60683044606000BF4B
:1034B00005F04000C8B15846FCF7F6FE86B2310A66
:1034C0006268501C6060206881546268501C6060B3
:1034D00020688654D4E90012881832465946FCF711
:1034E000F8FE60683044606000BF0020C7E600005E
:1034F000000000002DE9FF4F83B083461746994630
:10350000139C002500260020029001908046BBF10C
:10351000000F03D1012007B0BDE8F08F00260AE0BC
:103520000498805D232803D00498805D2B2801D166
:103530000220F0E7761C0498805D0028F0D148F066
:103540003008119808B148F0010806EB0900851C05
:10355000109820B1012804D002280AD105E000BF4C
:1035600009E048F00208AD1C05E048F00408AD1C75
:1035700001E00320CFE700BF8FB33878022821D1C4
:103580004FF0000A00BF50460AF1010A385C7D285E
:10359000F9D1AAF1030A0AF1070002900298A9EBF7
:1035A000000AE81CA0EB0A012046FFF726FE20686F
:1035B00008B90420AFE7EA1CA2EB0A012068FCF777
:1035C0004AFE19E0691D2046FFF717FE206808B97A
:1035D0000420A0E7691D2068FCF73DFE0CE0FFE732
:1035E000691D2046FFF709FE206808B9042092E70C
:1035F000691D2068FCF72FFE6168481C6060206828
:1036000000F80180D4E9000281182846FFF7DEFDAA
:1036100001900198002804DA2046FFF7C9FD052033
:1036200079E76168019808446060C6F30721626821
:10363000501C6060206881546268501C6060206883
:103640008654D4E90012881832460499FCF741FEEA
:10365000606830446060109860B14FEA1B21626876
:10366000501C6060206881546268501C6060206853
:1036700000F802B0C7B1387802280BD1D4E90012A3
:1036800088183946029AFCF7CDFD61680298084413
:10369000606009E0D4E9001288184A463946FCF710
:1036A000C1FD606848446060002034E72DE9F041C6
:1036B00096B006460F46144698461C9D48220B4974
:1036C00004A8FCF7AFFD01200021CDE9000123464D
:1036D0000A4604A9CDE902050A20FFF70BFF18B13D
:1036E000012016B0BDE8F0810020FAE74C7A00080E
:1036F000F0B504460D462646012300201060002147
:1037000014E0775C07F07F07106807FB0300106088
:10371000705C00F0800008B9481CF0BDDB01B3F517
:10372000001F02D36FF00100F7E7491CA942E8DB54
:103730004FF0FF30F1E701464878022801D0012020
:103740007047887810B18878012801D1C878F7E7E8
:10375000FF20F5E7F8B50446FF2720780511012D75
:1037600001DB0E2D01DD3846F8BD032D24D10020EC
:1037700000906A460421601CFFF7BAFF2044461CF3
:103780000098022803D3207800F0010008B1FF2040
:10379000EAE77078317840EA0120801C009988427D
:1037A00001D9FF20E0E706A1B01CFCF76BFD08B1D2
:1037B0000F2700E0032700E02F463846D4E700003B
:1037C000246372657100000010B5044A00210448AA
:1037D00002F01CF80349086010BD00003C790008A5
:1037E000B14100080000002000B585B00020019024
:1037F00002900390049000BF3F48806940F0400071
:103800003D4988610846806900F04000009000BF93
:1038100000BF00BF0846806940F01000886108467C
:10382000806900F01000009000BF00BF00BF084694
:10383000806940F0800088610846806900F080005F
:10384000009000BF00BF00BF0846806940F0200024
:1038500088610846806900F02000009000BF00BF2A
:1038600000BF0846806940F004008861084680690E
:1038700000F00400009000BF00BF012240211F485B
:10388000FEF78EFA01224FF478611D48FEF788FAA0
:10389000012240211B48FEF783FA402001900120BD
:1038A000029003900320049001A91448FEF7D0F879
:1038B0004FF478600190012002900390032004905F
:1038C00001A90F48FEF7C4F84FF4404001900020D2
:1038D00002900120039001A90848FEF7B9F84020A2
:1038E00001900120029003900320049001A9054853
:1038F000FEF7AEF805B000BD001002400018014010
:10390000001C01400010014010B50B480B49086035
:103910004FF4E1304860002108488160C1600161D6
:103920000C21416100218161C161FFF7B1FA08B149
:10393000FDF770FE10BD0000003801404405002076
:1039400010B50B480B4908604FF4E1304860002186
:1039500008488160C16001610C21416100218161E1
:10396000C161FFF795FA08B1FDF754FE10BD0000E4
:10397000004800408C05002000BFFEE700BFFEE7C6
:10398000024909680164014908607047100100207C
:10399000F0B58BB00546002600242846FCF784FCD1
:1039A000C7B20DB11C2F02DA01200BB0F0BD06E04A
:1039B000A85D01A988550020A855701CC6B2BE425A
:1039C000F6DB002001A988550026002455E001A857
:1039D000805D2B2810D008DC202814D023282ED07E
:1039E000252825D026283FD130E02F2812D03D2889
:1039F00033D03F2838D114E0281923A1FCF736FC36
:103A0000E01CC4B236E0281920A1FCF72FFCE01C12
:103A1000C4B22FE028191EA1FCF728FCE01CC4B298
:103A200028E028191BA1FCF721FCE01CC4B221E00E
:103A3000281919A1FCF71AFCE01CC4B21AE02819D5
:103A400016A1FCF713FCE01CC4B213E0281914A162
:103A5000FCF70CFCE01CC4B20CE0281911A1FCF727
:103A600005FCE01CC4B205E001A8805D2855601C7F
:103A7000C4B200BF00BF701CC6B2BE42A7DB0020AC
:103A8000285500BF91E70000253242002532300062
:103A900025324600253346002532350025323300D5
:103AA00025323600253344002DE9F04FC9B00546D4
:103AB0000C4616461F460DF5A47898E8000F002026
:103AC000489055B14CB13F48864206D32FB1B9F169
:103AD000000F02D0BAF1780F03DA012049B0BDE837
:103AE000F08F402118A8FCF7B6FB3846FCF7DCFB4A
:103AF00005903B4648AA4021009018A8FDF758F9C8
:103B0000482106A8FCF7A7FBBBF1000F09D02EA0A7
:103B100033462FA248218DE8310006A800F094FE1C
:103B200009E029A0334630A248218DE81101039510
:103B300006A800F089FE402128A8FCF78CFB06A807
:103B4000FCF7B2FB059018A8FCF7AEFB049028A880
:103B5000009006AA18A8DDE9041301F08DFB0020EF
:103B60004890402138A8FCF776FB28A8FCF79CFB7E
:103B7000059028AB48AA4021009038A8FDF7CEF95F
:103B800038A8FFF705FFBBF1000F0CD038A80EA135
:103B90002B461DA2CDE90046CDE90210514648460C
:103BA00000F052FE0CE038A807A12B46244ACDE9CC
:103BB00001860094CDE903105146484600F044FECA
:103BC00000208BE79554415D73686131000000006F
:103BD00025640A25730A70726F64756374732F25E8
:103BE000730A25730000000025640A25730A7072A9
:103BF0006F64756374732F25732F646576696365CD
:103C0000732F25730A25730076657273696F6E3D95
:103C10002573267265733D70726F647563747325C6
:103C200025324625732665743D2564266D657468C6
:103C30006F643D2573267369676E3D257300000030
:103C4000347B000830B5CDB0002049904A904B90AD
:103C50004C90642130A8FCF7FEFA00202F9001253B
:103C6000A02107AA39A3CDE90032CDE9021038A37B
:103C7000434A44A146A0FFF717FF07AB41A233A177
:103C800046A000F0D1FD51A0FDF7DAFC04461CB1BE
:103C900050A000F0C9FD02E053A000F0C5FD49A806
:103CA000002102910391CDE90410084601210B0285
:103CB00026A2CDE9001007A932A0FFF7CBFA002811
:103CC0003ED14A9949986422636B984764222FA990
:103CD00030A8A36B98479DF8C00000282CD030A8CE
:103CE000FFF738FD022827D130A8FFF724FD06286A
:103CF0001DD2DFE800F003080C10141840A000F0FB
:103D000093FD002517E043A000F08EFD13E048A0CE
:103D100000F08AFD0FE04FA000F086FD0BE055A0FB
:103D200000F082FD07E05CA000F07EFD03E065A0EE
:103D300000F07AFD00BF00BF49A8FFF739FA02E0A2
:103D400067A000F071FD28464DB030BD6431000021
:103D50004D466C4D4E334E536133647A635530306B
:103D60006330314A564456544F55355252314E35D0
:103D70004D6A687351325269536A453D0000000034
:103D800000CF9D746C6D55344A5A48375368000013
:103D9000323031382D31302D333100004F6E654EC9
:103DA00045545F4465764C696E6B0D0A4E414D4536
:103DB0003A2025732C0950524F49443A2025732C40
:103DC000094B45593A25730D0A0000006573703898
:103DD00032363600476F74204E657420446576692C
:103DE00063650D0A00000000476F74204E65742063
:103DF000446576696365206661696C0D0A000000A0
:103E0000546970733A09C1ACBDD3B3C9B9A60D0AE0
:103E1000000000005741524E3A09C1ACBDD3CAA7B9
:103E2000B0DCA3BAD0ADD2E9B4EDCEF30D0A0000F8
:103E30005741524E3A09C1ACBDD3CAA7B0DCA3BAB0
:103E4000B7C7B7A8B5C4636C69656E7469640D0AB9
:103E5000000000005741524E3A09C1ACBDD3CAA779
:103E6000B0DCA3BAB7FECEF1C6F7CAA7B0DC0D0A24
:103E7000000000005741524E3A09C1ACBDD3CAA759
:103E8000B0DCA3BAD3C3BBA7C3FBBBF2C3DCC2EB9A
:103E9000B4EDCEF30D0A00005741524E3A09C1ACC1
:103EA000BDD3CAA7B0DCA3BAB7C7B7A8C1B4BDD346
:103EB00028B1C8C8E7746F6B656EB7C7B7A8290D7E
:103EC0000A0000004552523A09C1ACBDD3CAA7B09E
:103ED000DCA3BACEB4D6AAB4EDCEF30D0A0000002E
:103EE0005741524E3A094D5154545F5061636B65CE
:103EF00074436F6E6E656374204661696C65640D12
:103F00000A00000070B58CB005460C4616463021FC
:103F10006846FCF7A0F914A12846FCF7EEF9302119
:103F20006846FCF798F9224615A1684600F0A6FC01
:103F300069462846FCF79AF930216846FCF78BF968
:103F4000324615A1684600F099FC69462846FCF700
:103F50008DF916A12846FCF789F92846FCF7A4F943
:103F6000C0B20CB070BD00007B226964223A2231DD
:103F70003233222C22706172616D73223A7B000011
:103F80002274656D70223A7B2276616C7565223AE7
:103F900025647D2C000000002268756D69223A7B43
:103FA0002276616C7565223A25647D007D7D000076
:103FB0002DE9F041C6B00746884600204290439064
:103FC000449045900025002622A000F02DFC4FF4DF
:103FD000807102A8FCF73FF94246394602A8FFF774
:103FE00091FF0546002D31D042A800232A4621A189
:103FF000009021A0FFF75AFB002824D108E002A876
:10400000815D439A501C439042988154701C06B2C3
:10401000AE42F4DB1BA0FDF713FB04461CB11BA052
:1040200000F002FC02E01EA000F0FEFB4399429863
:104030006422636B984720A0439900F0F5FB42A8E7
:10404000FFF7B6F802E020A000F0EEFB46B0BDE8B6
:10405000F0810000546970733A094F6E654E6574C3
:104060005F53656E64446174612D4D5154540D0A63
:1040700000000000643100006C6D55344A5A483726
:10408000536800006573703832363600476F74200D
:104090004E6574204465766963650D0A0000000072
:1040A000476F74204E6574204465766963652066A9
:1040B00061696C0D0A00000053656E642025642060
:1040C00042797465730D0A005741524E3A094544CE
:1040D000505F4E6577427566666572204661696C11
:1040E00065640D0A0000000010B590B000242FE0B8
:1040F000194850F8240050B3FDF758FE164951F8FE
:104100002410884223D300208DF800000CB9012030
:1041100000E0022001904CB94FF480410F48FDF7B8
:1041200037FE08B901200AE0002008E04FF4004102
:104130000A48FDF72DFE08B9012000E0002002909A
:10414000684600F00DF80020034941F82400641C83
:10415000022CCDDB10B010BD9C00002000180140E7
:1041600010B5044600231A4621460348006802F0B1
:104170008BFF002010BD00009800002008B5084902
:104180000968C9084FF47A72B1FBF2F1414300911A
:1041900000BF00BF00994A1E00920029F9D108BD56
:1041A00010000020014A42F8201070479C000020B7
:1041B00003A000F039FB00BF012001F0C9FAFBE7C2
:1041C00053746172742044656661756C7420546127
:1041D000736B2E0D0A00000010B500BF502080F355
:1041E0001188BFF34F8FBFF36F8F00BF03F066F9E5
:1041F00018B14FF080500449086000BF002080F3E0
:10420000118800BF10BD000004ED00E000B58FB0C4
:10421000282105A8FCF71FF814216846FCF71BF8B5
:1042200001200590000406900020079001200990CD
:1042300002200C90C1030D914FF4E0110E9105A8DE
:10424000FDF7F0FF08B1FDF7E5F90F20009002201F
:104250000190002002904FF48060039000200490B1
:1042600002216846FDF79EFE08B1FDF7D3F90FB0B5
:1042700000BD704710B50248FEF7B4FB10BD00004A
:10428000D405002010B50268204B98420ED0204B78
:1042900098420BD0B0F1804F08D01E4B984205D009
:1042A0001D4B984202D01D4B984203D122F0700260
:1042B0004B681A43154B98420ED0154B98420BD0C1
:1042C000B0F1804F08D0134B984205D0124B984262
:1042D00002D0124B984203D122F44072CB681A43A9
:1042E00022F080034C6943EA040202608B68C362D7
:1042F0000B688362054B984202D0054B984201D16E
:104300000B6903630123436110BD0000002C0140D1
:10431000003401400004004000080040000C004050
:1043200030B50C46816821F47F4142EA03252543DC
:104330002943816030BD0A46816821F0700142F056
:10434000070319438160704730B50B461446026A73
:10435000056A25F001050562816921F0F00141EA55
:10436000041122F00A021A438161026230BD30B5A5
:104370000B461446026A056A25F01005056281693C
:1043800021F4704141EA043122F0A00242EA031212
:104390008161026230BD00000348D0F80004024988
:1043A000C1F8040470470000B428002010B502488A
:1043B00002F030F8002010BDB428002010B50446EB
:1043C0000249204602F02CF810BD0000B42800205D
:1043D00070B504460D462946204600F00DFA00202F
:1043E00070BD70B505466C6A0020E085E08420460B
:1043F000FEF7DAFB70BD00BF00BF02680C3252E866
:10440000002F22F4907102680C3242E80013002B56
:10441000F3D100BF00BF00BF0268143252E8002F82
:1044200022F001010268143242E80013002BF3D19C
:1044300000BF016B01290ED100BF00BF02680C3222
:1044400052E8002F22F0100102680C3242E80013FB
:10445000002BF3D100BF202180F84210002101631E
:10446000704710B504462068C06820F040002168FD
:10447000C860202084F841002046FEF73DFE002061
:1044800010BDF8B5044694F84200222875D1A06802
:10449000B0F5805F0CD1206950B90025A66A20686C
:1044A0004068C0F308003080A06A801CA06215E05C
:1044B000A56A0026A068B0F5805F03D0A06828B97F
:1044C000206918B920684068287004E020684068B6
:1044D00000F07F002870A06A401CA062E08D401EA2
:1044E00080B2E085002846D12068C06820F0200016
:1044F0002168C8602068C06820F480702168C860A6
:104500002068406920F0010021684861202084F87B
:10451000420000206063206B012826D10020206328
:1045200000BF00BF21680C3151E8001F21F01000CE
:1045300021680C3141E80002002AF3D100BF206855
:10454000006800F0100010280AD100BF0020009081
:1045500020680068009020684068009000BF00BF9D
:10456000A18D2046FEF71FFB02E02046FEF75EFD10
:104570000020F8BD01E00020FBE70220F9E7000081
:1045800070B504462168096921F44051E26811437D
:10459000226811612269A1681143626941EA02053A
:1045A0002168C96841F20C62914329432268D160B5
:1045B0002168496921F44071A2691143226851615F
:1045C0002D4A2168914202D1FDF7E4FD01E0FDF79B
:1045D000D1FD00EBC00101EB001162689200B1FB5C
:1045E000F2F100EBC00202EB001263689B00B2FB29
:1045F000F3F26423B2FBF3F202EBC20303EB021209
:10460000A1EB8201322202EB01116422B1FBF2F133
:1046100001F0F00100EBC00202EB001263689B00A6
:10462000B2FBF3F26423B2FBF3F201EB021200EBF4
:10463000C00101EB001163689B00B1FBF3F100EBDB
:10464000C00303EB00136668B600B3FBF6F3642601
:10465000B3FBF6F303EBC30606EB0313A1EB8301F5
:10466000322303EB01116423B1FBF3F101F00F01DD
:1046700011442268916070BD00380140014691F8F4
:104680004100212828D18868B0F5805F0BD10869E6
:1046900048B90A6A1088C0F308000B685860086AB5
:1046A000801C086205E00B6A581C086218780B68C9
:1046B0005860C88C401E80B2C88458B90868C06869
:1046C00020F080000B68D8600868C06840F04000A7
:1046D0000B68D860002070470220FCE72DE9F0410C
:1046E00004460D4617469846069E34E0701C88B373
:1046F0002EB1FDF75BFBA0EB0800B0422BD900BF49
:1047000000BF21680C3151E8001F21F4D0702168EE
:104710000C3141E80002002AF3D100BF00BF00BF06
:104720002168143151E8001F21F001002168143183
:1047300041E80002002AF3D100BF202084F84100A4
:1047400084F8420000BF002084F8400000BF03202E
:10475000BDE8F081FFE7206800682840A84201D149
:10476000012000E00020B842C0D00020F0E70000A7
:1047700010B500240848006800F0200038B1064851
:10478000001D0068C4B20549204601F060FE0448DF
:10479000FEF70CFA10BD0000003801403C0100207B
:1047A0004405002010B500240F48006818B9FCF734
:1047B0005FFF0D4908600D48006800F0200078B1E7
:1047C0000A48001D0068C4B207480168204601F08D
:1047D0003EFE0748006818B1204605490968884729
:1047E0000448FEF7E3F910BD1C000020004800401B
:1047F000180000208C05002010B5024600200BE0B8
:1048000000BF074B1B6803F08003002BF9D0135C3B
:10481000034C241D2360401C8842F1DB10BD0000C6
:104820000048004000BFFEE70FB4054B10B503A9D8
:10483000044A029800F030F910BC5DF814FB000047
:10484000C15100082C0100200FB47CB50C0009AD4B
:1048500001D0611E00E00021CDE90001064B6A464F
:104860002946089800F018F9002C02D0009A00217F
:1048700011707CBC5DF814FB9F5100080FB4084B0D
:1048800010B504A902AA039800F006F9044602A98B
:10489000002000F08FFC204610BC5DF814FB0000E7
:1048A000B551000802480068C0F3022070470000BC
:1048B0000CED00E010B5002804DB0A07130E054AD2
:1048C000135406E00A07140E034A00F00F031B1FDF
:1048D000D45410BD00E400E018ED00E0004870473B
:1048E00038010020EFF311807047EFF30580704727
:1048F000EFF31080704702E008C8121F08C1002AB9
:10490000FAD170477047002001E001C1121F002A50
:10491000FBD170472DE9FF5F82B00021DDE9043053
:10492000020DDDF840B0034318D044F61050A2F257
:10493000FF3242431514119801281FD0A5EB0B003C
:10494000401C5FEA000A4FF000064E4FDFF8389136
:10495000B046504615D5CAF1000413E01198012461
:104960004AA3012801D16FEA0B010298119AC0E90C
:104970000031C0E9024206B0BDE8F09FCBF1000073
:10498000DFE704460021404A491842EB0450CDE9D4
:10499000001012E0E00707D032463B464046494649
:1049A000FBF768FD8046894632463B46104619466D
:1049B000FBF760FD06460F466410002CEAD1DDE9E6
:1049C0000401DDE90023BAF1000F06DAFBF752FD1E
:1049D00042464B46FBF74EFD05E0FBF7D2FE424652
:1049E0004B46FBF7CEFE04460E460022284BFBF753
:1049F000B3FD03D84FF0FF30014607E00022254BFE
:104A000020463146FBF78FFCFBF72AFF102409E014
:104A1000002C0ADB0A220023FBF7CCFD039B30327B
:104A20001A55641E50EA0102F2D1641C039AC4F1C3
:104A300011031444119A012A03D0012208430DD115
:104A40000AE0084304D000204FF0110B119072E7E8
:104A5000A3EB0B056D1E0DE05B4504DD4FF000027E
:104A600005F1010504E003DA4FF00002A5F10105AC
:104A7000002AECD002981199C0E90231C0E9004542
:104A800079E70000000014400000F03F3000000013
:104A90000000F0430000E03F2DE9FF4F95B09A463B
:104AA000884606460025EEE1252877D100242746D2
:104AB000F94A0121039400E0044316F8013F203B2A
:104AC00001FA03F01042F7D130782A2811D06FF0A4
:104AD0002F033078A0F13002092A16D8039A44F047
:104AE000020402EB820203EB42021044761C0390A4
:104AF000EFE758F8042B0392002A03DA504244F4FB
:104B00000054039044F00204761C30782E2816D10D
:104B100016F8010F44F004042A280DD06FF02F027C
:104B20003078A0F13003092B09D807EB870302EB9B
:104B30004303C718761CF3E758F8047B761C3078DB
:104B40006C280FD006DC4C2817D068280DD06A28B6
:104B500014D104E0742810D07A280FD10DE044F469
:104B600000140AE044F4801401E044F44014727824
:104B7000824202D104F58014761C761C30786628B7
:104B80000BD013DC582877D009DC002875D04528D5
:104B9000F6D04628F4D047281AD193E118E06328CC
:104BA00035D0642879D0652812D18BE1702873D074
:104BB00008DC6728F1D069286FD06E280DD06F28E7
:104BC00006D1ACE073282CD0752874D0782853D047
:104BD0005246179990476D1C54E1C4F302500228C5
:104BE00009D003280DD0D8F8001004280DD00D608E
:104BF00008F1040846E1D8F80010EA17C1E90052AC
:104C0000F6E7D8F800100D80F2E70D70F0E718F81D
:104C1000041B8DF8001000208DF80100EB460120E8
:104C200003E058F804BB4FF0FF3061074FF000017C
:104C300002D40DE009F101018946B9420FDA81453C
:104C4000F8DB1BF809100029F4D108E009F1010193
:104C500089468142FADB1BF809100029F6D1039836
:104C60005346A0EB090721463846179A00F080FA10
:104C7000284400EB090507E044E008E10DE01BF8DB
:104C8000010B524617999047B9F10109F7D25346E3
:104C900021463846179AF2E039E00A21C4F302525D
:104CA0004FF0000B0091022A06D058F8040BC117F0
:104CB000032A09D00AE023E008F1070020F00702E8
:104CC000F2E80201904605E000B2C117042A01D1C2
:104CD00040B2C117002906DA0A460021404261EBC2
:104CE00002012D2202E0220504D52B228DF804209A
:104CF000012203E0E20701D02022F7E7914657E0C6
:104D00000A2100E010214FF0000B00910BE0102170
:104D10004FF0000B44F004040827009103E0082042
:104D20004FF0000B0090C4F30252022A05D058F84D
:104D3000040B0021032A08D008E008F1070020F046
:104D40000702F2E80201904603E080B2042A00D193
:104D5000C0B24FF0000922072AD53278702A07D056
:104D6000DDF800C08CF0100C5CEA0B0C05D00EE0F6
:104D700040228DF80420012208E050EA010306D009
:104D800030238DF804308DF8052002229146009BD7
:104D900083F0080353EA0B030AD150EA010201D160
:104DA000620705D530228DF804204FF001097F1EDF
:104DB0003278582A04D039A20C920CAA02920BE045
:104DC0003BA2F9E75B46009AFBF7F4FB0C9B9B5C6C
:104DD000029A521E0292137050EA0102F2D1029816
:104DE00004A9081A00F1200B600702D524F48034CE
:104DF00000E001275F4502DDA7EB0B0000E000208B
:104E000000EB0B01009003984944401A0390E00323
:104E100006D453462146179A039800F0A9F9054491
:104E2000002706E001A85246C05D179990476D1C07
:104E30007F1C4F45F6DBE0030CD553462146179AFD
:104E4000039800F095F9054404E030205246179984
:104E500090476D1C0099481E00900029F5DC08E081
:104E60000298029952460078491C0291179990477E
:104E70006D1CBBF10001ABF1010BF1DC5BE100F05B
:104E800065F90544761C307800287FF40DAE19B022
:104E90002846BDE8F08F0000092801003031323388
:104EA0003435363738396162636465660000000066
:104EB0003031323334353637383941424344454650
:104EC00000000000600700D4062708F1070020F06A
:104ED0000700F0E80223804603F0004C5FEA0C0074
:104EE00001D097A009E0200501D596A005E0E007D4
:104EF00001D095A001E0AFF24C001390307823F080
:104F0000004365280CD006DC452809D046281DD072
:104F100047287FD13BE0662818D067287AD136E051
:104F20000021112F01DB112000E0781CCDE90001E8
:104F300004A90CA8FFF7EEFCDDE90D010C9A4FF077
:104F4000000B07F10109109200914EE04FF0004074
:104F50000097CDE9011004A90CA8FFF7DBFCDDE9FF
:104F60000D020C9B0F994FF0000B9146109300928D
:104F700011B9791C00EB0109B7EB090003D4C0F1AA
:104F8000FF3B07F10109A9EB0700019042E0012F67
:104F900000DA01270021112F01DD112000E0384641
:104FA000CDE9000104A90CA8FFF7B4FCDDE90D016F
:104FB0000C9A00914FF0000BB946109221070FD4C4
:104FC000009A4A4503DA914601E0A9F10109B9F1D5
:104FD000010F05DD109AA9F10101515C3029F4D0CF
:104FE000B84202DA10F1040F03DA0121CDE9011011
:104FF00010E0002803DC8344A9EB000102E0411C1F
:10500000494500DD8946A0EB0B00401C01904FF0A4
:1050100000400290200705D40198484502DB4FF07C
:10502000FF30019000208DF84B0002980DF14B07E6
:10503000B0F1004F25D002200C902B200D9002984B
:1050400000280CDA404202902D200D9007E00A2142
:105050000298FBF799FA3031029007F8011D0C997C
:10506000481E0C900029F2DC02980028EFD1791E2E
:105070000D980870307800F0200040F0450007F8E7
:10508000020D11A8C01BC01D02901398007800B13A
:10509000012000EB0901019801EBE0710298014445
:1050A0000398401A401E0390E00306D4534621465D
:1050B000179A039800F05CF805441398007818B12B
:1050C0005246179990476D1CE00323D5534621465D
:1050D000179A039800F04CF805441BE0BBF1000F51
:1050E00007DB0098584504DD1098179910F80B005D
:1050F00001E0179930205246904701980BF1010BBF
:10510000401E05F10105019004D12E205246179949
:1051100090476D1CB9F10001A9F10109DEDC05E041
:1051200017F8010B5246179990476D1C0299481EBB
:1051300002900029F4DC53462146179A03989EE614
:105140002D0000002B000000200000002DE9F041A0
:10515000044600251E461746880404D405E0394657
:105160002020B0476D1C641EF9D52846BDE8F081AB
:105170002DE9F041044600251E469046C80301D59E
:10518000302700E02027880404D505E04146384652
:10519000B0476D1C641EF9D52846BDE8F0814A6809
:1051A000002A06D00A68531C0B6010704868401E25
:1051B000486070470A68531C0B601070704700000D
:1051C00013B50C464FF0FF33012269460248FDF744
:1051D00039FF00201CBD00004405002010B5002848
:1051E00021D0114B0022001F196803E0814203D82F
:1051F0000A4649680029F9D152B11368841A9C42C1
:1052000004D1006818441060104602E0506000E0CD
:10521000186039B102680B1A934203D10B681A4423
:1052200002604968416010BD30010020F0B50446BD
:10523000142C06DA01EA020523EA010685EA0600D3
:1052400019E0282C04DA81EA020787EA030012E059
:105250003C2C0ADA01EA020501EA030787EA05069F
:1052600002EA030787EA060005E0502C03DA81EA28
:10527000020787EA0300F0BD2DE9F04FADF5B36DED
:1052800007460E4692469846DDF8BC9540254FF0FD
:10529000360B5C20CDF89405002404E000200DF2CC
:1052A00054510855641C402CF8DBAE421DD0AE4270
:1052B0000FDD4A463146384601F0F0F8002405E09B
:1052C00019F804000DF254510855641C142CF7DB36
:1052D00014E0AE4212DA002404E0385D0DF25451BD
:1052E0000855641CB442F8DB08E0002404E0385D93
:1052F0000DF254510855641CAC42F8DB002408E060
:105300000DF25450005D80EA0B000DF21451085567
:10531000641C402CF4DB002405E00DF21450005D09
:1053200015A90855641C402CF7DB002406E01AF888
:10533000041015AA04F140001154641C4445F6DB26
:1053400008EB05014A4615A801F0A8F8002409E079
:105350000DF25450005DDDF8941548400DF2D44133
:105360000855641C402CF3DB002405E00DF2D4400A
:10537000005D0DF80400641C402CF7DB002406E0FF
:1053800019F8041004F140000DF80010641C142CEE
:10539000F6DB4A4605F11401684601F07FF80DF589
:1053A000B36DBDE8F08F000070B505460C460020D7
:1053B000285505A12846FAF765FF08B1002070BD01
:1053C0004FF0FF30FBE700004552524F520D0A00EC
:1053D00070B505460C460020285504A12846FAF76A
:1053E00051FF08B1012070BD0020FCE73E00000025
:1053F00070B505460C460020285505A12846FAF749
:1054000041FF08B1002070BD4FF0FF30FBE7000006
:105410004F4B0D0A000000000146142901DA07482D
:105420000AE0282901DA064806E03C2901DA0548A5
:1054300002E0502900DA0448704700009979825A46
:10544000A1EBD96EDCBC1B8FD6C162CA1CB5FCF7C0
:10545000BFFCFEF7DBFEFEF7C7F9FEF755FAFEF7D5
:105460006FFA0D4800F0D6FFFCF7C0F80BA0FFF76D
:10547000DBF900F089F9FEF7A7F9002018210346AF
:105480004FF47A72CDE9001008A10B4801F072FFC9
:1054900000F09AF900BFFEE73C01002048656C6C03
:1054A0006F20576F726C64210D0A00006D71747467
:1054B000746573740000000029550008F0B50B30C6
:1054C000154D20F007010024144A0FE003688B42B9
:1054D0000BD38B4205D95E1A43184768C3E90067AE
:1054E00000E04368136002C004E0021D1068002859
:1054F000ECD12046002802D1286808B10020F0BD78
:10550000064A07481060074A121A22F00702C0E94B
:10551000002401202860D7E734010020300100205A
:10552000C42C0020C02E0020F0B58DB040F2D24631
:105530004FF4FA60FCF7A6F9FBF736FC35A0FCF750
:105540007FF80546286A80470FE034A136A06A6AD2
:10555000904718B937A0FFF767F907E03AA0FFF7BF
:1055600063F94FF47A70FCF78DF9EEE700BF6946F6
:105570002846AA6A904728B93246694637A0FFF7FD
:1055800053F904E03CA0FFF74FF90DB0F0BD3EA089
:10559000FFF74AF9286B80470CE040F25B7141A0AD
:1055A000EA6A904718B940A0FFF73EF903E045A02A
:1055B000FFF73AF9F1E700BF0CE049A0FFF734F933
:1055C000FEF740FB18B94BA0FFF72EF903E04FA000
:1055D000FFF72AF9F1E700BF0120FCF727F804469E
:1055E0001CB14FA0FFF720F902E053A0FFF71CF910
:1055F000A06880470CE02046E1688847074661794B
:105600002079FEF7D5FC41F28830FCF73BF900BF6A
:10561000F1E7000065737038323636004368793040
:1056200038303432303030004855415745495F32C8
:1056300043373100436F6E6E6563742057494649A6
:10564000206F6B0D0A000000436F6E6E656374205F
:1056500057494649206572720D0A0000426F617217
:1056600064204950203D2025732C20706F727420D7
:105670003D2025640D0A0000476574496E666F2061
:105680006572720D0A000000436F6E6E65637420D0
:105690004D51545473205365727665722E2E2E0D23
:1056A0000A00000054435000437265617465204D48
:1056B000515454205472616E73666572206F6B0D85
:1056C0000A000000437265617465204D51545420F6
:1056D0005472616E73666572206572720D0A000005
:1056E000446576696365204C6F67696E2E2E2E0DBA
:1056F0000A000000446576696365204C6F67696E37
:1057000020537563636573730D0A00004465766901
:105710006365204C6F67696E204661696C0D0A00F5
:105720004765742044485431312064657669636567
:10573000206F6B0D0A000000476574204448543107
:105740003120646576696365206661696C0D0A00C5
:1057500070B50546FFF7C9F848B9FFF7C9F830B981
:1057600008480068022805D1FFF7BCF810B16FF0B7
:10577000050404E0002415B1284601F051F9204643
:1057800070BD00007000002010B5FFF7AEF848B9FA
:10579000FFF7AEF830B90B480068022805D1FFF7D3
:1057A000A1F810B16FF0050409E00648006820B9BF
:1057B000012004490860002401E04FF0FF34204636
:1057C00010BD00007000002010B5FFF78EF848B93A
:1057D000FFF78EF830B90C480068022805D1FFF7B2
:1057E00081F810B16FF005040CE00748006801284B
:1057F00006D102200449086001F08EF9002401E07E
:105800004FF0FF34204610BD700000202DE9F04716
:1058100086B080468946144600200490FFF765F85C
:1058200000285DD1FFF764F8002859D12D480068A1
:10583000022803D1FFF756F8002851D1B8F1000F24
:105840004ED080261825002005900DF1140A471E21
:1058500044B3206808B1D4F800A0A06900B1A569DC
:105860002DB1382D03D8207900F0010018B10020A7
:1058700006B0BDE8F087606908B160698608A06875
:1058800040B1E0685C2805D3206918B1606908B1AF
:10589000012708E0A06830B9E06820B9206910B994
:1058A000002700E00027012F0CD12169A0684B469A
:1058B0003246CDE9005102905146404601F08CFD40
:1058C00004900DE067B904A8B2B24B465146CDE949
:1058D0000050404601F04EFD012801D00020049008
:1058E0000498C5E7700000202DE9F04105460E46FA
:1058F0001648076816480068001D00F011FF681C74
:1059000038B936B112480168091D124800F05EFF2F
:105910001AE07C190E4800684460BC4207D20C486B
:105920000168091D0C48006800F036FF0CE00848CB
:105930000168091D0948006800F02EFF084800684A
:10594000844201D206480460BDE8F08134000020A2
:1059500020000020540B00202800002024000020FC
:105960005000002010B5044600F03CFF24480068B9
:10597000401C234908602348006840B9214804605E
:105980000846006801280DD100F0F8F90AE01E4829
:10599000006838B91B480068C06AE16A884201D8CB
:1059A0001848046019480068401C184908600846F7
:1059B000006860641649E06A0968884202D914499F
:1059C000E06A0860E16A01EB8101124A02EB8100A2
:1059D000211D00F0FBFE00F02FFF0B48006868B1AE
:1059E00008480068C06AE16A884207D24FF08050D8
:1059F00009490860BFF34F8FBFF36F8F10BD0000E0
:105A000030000020200000203C0000204C0000203E
:105A100038000020A406002004ED00E008B500F0E6
:105A2000E1FE12480068E8B9114800F0A5FE1148EF
:105A300000F0A2FE0E48104908600E480F490860A9
:105A400000200F4B0F4A102100900A2001F08CF922
:105A5000064908600846006820B10BA103480068A9
:105A600000F0A2FF00F0E8FE08BD00006400002086
:105A7000680B00207C0B00205C00002060000020F0
:105A8000900B0020E00B0020546D725100000000CC
:105A900010B516E000F0A6FE0C48C068C468201DD2
:105AA00000F03EFE0A480068401E094908600948A7
:105AB0000068401E0749086000F0BEFE204600F066
:105AC0005EF8044800680028E4D110BD400B0020B7
:105AD000300000202C00002070B504460D46206CDC
